{
  "_format": "hh-sol-artifact-1",
  "contractName": "CampaignFactory",
  "sourceName": "contracts/CampaignFactory.sol",
  "abi": [
    {
      "anonymous": false,
      "inputs": [
        {
          "indexed": false,
          "internalType": "address",
          "name": "campaignAddress",
          "type": "address"
        },
        {
          "indexed": false,
          "internalType": "address",
          "name": "manager",
          "type": "address"
        },
        {
          "indexed": false,
          "internalType": "uint256",
          "name": "minimumContribution",
          "type": "uint256"
        }
      ],
      "name": "CampaignCreated",
      "type": "event"
    },
    {
      "inputs": [
        {
          "internalType": "uint256",
          "name": "minimumContribution",
          "type": "uint256"
        }
      ],
      "name": "createCampaign",
      "outputs": [],
      "stateMutability": "nonpayable",
      "type": "function"
    },
    {
      "inputs": [
        {
          "internalType": "uint256",
          "name": "projectId",
          "type": "uint256"
        }
      ],
      "name": "get",
      "outputs": [
        {
          "internalType": "address",
          "name": "",
          "type": "address"
        }
      ],
      "stateMutability": "view",
      "type": "function"
    },
    {
      "inputs": [],
      "name": "getCampaignCount",
      "outputs": [
        {
          "internalType": "uint256",
          "name": "",
          "type": "uint256"
        }
      ],
      "stateMutability": "view",
      "type": "function"
    },
    {
      "inputs": [],
      "name": "getDeployedCampaigns",
      "outputs": [
        {
          "internalType": "address[]",
          "name": "",
          "type": "address[]"
        }
      ],
      "stateMutability": "view",
      "type": "function"
    },
    {
      "inputs": [],
      "name": "totalProjects",
      "outputs": [
        {
          "internalType": "uint256",
          "name": "",
          "type": "uint256"
        }
      ],
      "stateMutability": "view",
      "type": "function"
    }
  ],
  "bytecode": "0x60806040526000600155348015601457600080fd5b506122bd806100246000396000f3fe608060405234801561001057600080fd5b50600436106100575760003560e01c80634acb9d4f1461005c5780636caa92181461007a5780639507d39a146100985780639c361e4e146100c8578063a3303a75146100e6575b600080fd5b610064610102565b604051610071919061041e565b60405180910390f35b6100826101f5565b60405161008f9190610459565b60405180910390f35b6100b260048036038101906100ad91906104a5565b6101ff565b6040516100bf91906104e1565b60405180910390f35b6100d061023b565b6040516100dd9190610459565b60405180910390f35b61010060048036038101906100fb91906104a5565b610241565b005b6060600060015467ffffffffffffffff811115610122576101216104fc565b5b6040519080825280602002602001820160405280156101505781602001602082028036833780820191505090505b50905060005b6001548110156101ed5760008082815260200190815260200160002060009054906101000a900473ffffffffffffffffffffffffffffffffffffffff168282815181106101a6576101a561052b565b5b602002602001019073ffffffffffffffffffffffffffffffffffffffff16908173ffffffffffffffffffffffffffffffffffffffff16815250508080600101915050610156565b508091505090565b6000600154905090565b600080600083815260200190815260200160002060009054906101000a900473ffffffffffffffffffffffffffffffffffffffff169050919050565b60015481565b6000813360405161025190610321565b61025c92919061055a565b604051809103906000f080158015610278573d6000803e3d6000fd5b5090506001805461028991906105b2565b60018190555080600080600154815260200190815260200160002060006101000a81548173ffffffffffffffffffffffffffffffffffffffff021916908373ffffffffffffffffffffffffffffffffffffffff1602179055507fc5099b671a0e7e75b6a5d731232dc609f91567fd0a1fb5921f49ee14d60a13b9813384604051610315939291906105e6565b60405180910390a15050565b611c6a8061061e83390190565b600081519050919050565b600082825260208201905092915050565b6000819050602082019050919050565b600073ffffffffffffffffffffffffffffffffffffffff82169050919050565b60006103858261035a565b9050919050565b6103958161037a565b82525050565b60006103a7838361038c565b60208301905092915050565b6000602082019050919050565b60006103cb8261032e565b6103d58185610339565b93506103e08361034a565b8060005b838110156104115781516103f8888261039b565b9750610403836103b3565b9250506001810190506103e4565b5085935050505092915050565b6000602082019050818103600083015261043881846103c0565b905092915050565b6000819050919050565b61045381610440565b82525050565b600060208201905061046e600083018461044a565b92915050565b600080fd5b61048281610440565b811461048d57600080fd5b50565b60008135905061049f81610479565b92915050565b6000602082840312156104bb576104ba610474565b5b60006104c984828501610490565b91505092915050565b6104db8161037a565b82525050565b60006020820190506104f660008301846104d2565b92915050565b7f4e487b7100000000000000000000000000000000000000000000000000000000600052604160045260246000fd5b7f4e487b7100000000000000000000000000000000000000000000000000000000600052603260045260246000fd5b600060408201905061056f600083018561044a565b61057c60208301846104d2565b9392505050565b7f4e487b7100000000000000000000000000000000000000000000000000000000600052601160045260246000fd5b60006105bd82610440565b91506105c883610440565b92508282019050808211156105e0576105df610583565b5b92915050565b60006060820190506105fb60008301866104d2565b61060860208301856104d2565b610615604083018461044a565b94935050505056fe6080604052604051611c6a380380611c6a8339818101604052810190610025919061010d565b80600260006101000a81548173ffffffffffffffffffffffffffffffffffffffff021916908373ffffffffffffffffffffffffffffffffffffffff16021790555081600381905550505061014d565b600080fd5b6000819050919050565b61008c81610079565b811461009757600080fd5b50565b6000815190506100a981610083565b92915050565b600073ffffffffffffffffffffffffffffffffffffffff82169050919050565b60006100da826100af565b9050919050565b6100ea816100cf565b81146100f557600080fd5b50565b600081519050610107816100e1565b92915050565b6000806040838503121561012457610123610074565b5b60006101328582860161009a565b9250506020610143858286016100f8565b9150509250929050565b611b0e8061015c6000396000f3fe6080604052600436106100865760003560e01c806381d12c581161005957806381d12c58146101475780638a9cfd5514610189578063937e09b1146101b2578063d7bb99ba146101dd578063d7d1bbdb146101e757610086565b8063034410061461008b5780630a144391146100b4578063481c6a75146100f15780635a29638d1461011c575b600080fd5b34801561009757600080fd5b506100b260048036038101906100ad9190610e17565b610210565b005b3480156100c057600080fd5b506100db60048036038101906100d69190610ea2565b610479565b6040516100e89190610eea565b60405180910390f35b3480156100fd57600080fd5b50610106610499565b6040516101139190610f14565b60405180910390f35b34801561012857600080fd5b506101316104bf565b60405161013e9190610f8e565b60405180910390f35b34801561015357600080fd5b5061016e60048036038101906101699190610e17565b6104e3565b60405161018096959493929190611048565b60405180910390f35b34801561019557600080fd5b506101b060048036038101906101ab91906111e5565b6105e4565b005b3480156101be57600080fd5b506101c7610861565b6040516101d49190611254565b60405180910390f35b6101e5610867565b005b3480156101f357600080fd5b5061020e60048036038101906102099190610e17565b610957565b005b600260009054906101000a900473ffffffffffffffffffffffffffffffffffffffff1673ffffffffffffffffffffffffffffffffffffffff163373ffffffffffffffffffffffffffffffffffffffff16146102a0576040517f08c379a0000000000000000000000000000000000000000000000000000000008152600401610297906112e1565b60405180910390fd5b80600680549050116102b6600680549050610bac565b6040516020016102c691906113af565b60405160208183030381529060405290610316576040517f08c379a000000000000000000000000000000000000000000000000000000000815260040161030d91906113d1565b60405180910390fd5b5060006006828154811061032d5761032c6113f3565b5b906000526020600020906005020190508060030160149054906101000a900460ff161561038f576040517f08c379a00000000000000000000000000000000000000000000000000000000081526004016103869061146e565b60405180910390fd5b600060026005546103a091906114ec565b8260040154119050806103e8576040517f08c379a00000000000000000000000000000000000000000000000000000000081526004016103df9061158f565b60405180910390fd5b8160030160009054906101000a900473ffffffffffffffffffffffffffffffffffffffff1673ffffffffffffffffffffffffffffffffffffffff166108fc83600201549081150290604051600060405180830381858888f19350505050158015610456573d6000803e3d6000fd5b5060018260030160146101000a81548160ff021916908315150217905550505050565b60046020528060005260406000206000915054906101000a900460ff1681565b600260009054906101000a900473ffffffffffffffffffffffffffffffffffffffff1681565b60008054906101000a900473ffffffffffffffffffffffffffffffffffffffff1681565b600681815481106104f357600080fd5b906000526020600020906005020160009150905080600001549080600101805461051c906115de565b80601f0160208091040260200160405190810160405280929190818152602001828054610548906115de565b80156105955780601f1061056a57610100808354040283529160200191610595565b820191906000526020600020905b81548152906001019060200180831161057857829003601f168201915b5050505050908060020154908060030160009054906101000a900473ffffffffffffffffffffffffffffffffffffffff16908060030160149054906101000a900460ff16908060040154905086565b600260009054906101000a900473ffffffffffffffffffffffffffffffffffffffff1673ffffffffffffffffffffffffffffffffffffffff163373ffffffffffffffffffffffffffffffffffffffff1614610674576040517f08c379a000000000000000000000000000000000000000000000000000000000815260040161066b906112e1565b60405180910390fd5b6000446040516020016106879190611630565b6040516020818303038152906040528051906020012060001c905060006040518060c001604052808381526020018681526020018581526020018473ffffffffffffffffffffffffffffffffffffffff16815260200160001515815260200160008152509050600681908060018154018082558091505060019003906000526020600020906005020160009091909190915060008201518160000155602082015181600101908161073891906117ed565b506040820151816002015560608201518160030160006101000a81548173ffffffffffffffffffffffffffffffffffffffff021916908373ffffffffffffffffffffffffffffffffffffffff16021790555060808201518160030160146101000a81548160ff02191690831515021790555060a08201518160040155505060006001600084815260200190815260200160002060008073ffffffffffffffffffffffffffffffffffffffff1673ffffffffffffffffffffffffffffffffffffffff16815260200190815260200160002060006101000a81548160ff0219169083151502179055507f7c8193f35c0be0f0de85a76806a85eb113857a95308e004a23313fa4dda3293e858585604051610852939291906118bf565b60405180910390a15050505050565b60035481565b6003543410156108ac576040517f08c379a00000000000000000000000000000000000000000000000000000000081526004016108a390611949565b60405180910390fd5b6001600460003373ffffffffffffffffffffffffffffffffffffffff1673ffffffffffffffffffffffffffffffffffffffff16815260200190815260200160002060006101000a81548160ff0219169083151502179055506005600081548092919061091790611969565b91905055507f1bb460ccaaf70fbacfec17a376f8acbd278c1405590ffcc8ebe4b88daf4f64ad333460405161094d9291906119b1565b60405180910390a1565b806006805490501161096d600680549050610bac565b60405160200161097d91906113af565b604051602081830303815290604052906109cd576040517f08c379a00000000000000000000000000000000000000000000000000000000081526004016109c491906113d1565b60405180910390fd5b506000600682815481106109e4576109e36113f3565b5b90600052602060002090600502019050600460003373ffffffffffffffffffffffffffffffffffffffff1673ffffffffffffffffffffffffffffffffffffffff16815260200190815260200160002060009054906101000a900460ff16610a80576040517f08c379a0000000000000000000000000000000000000000000000000000000008152600401610a7790611a4c565b60405180910390fd5b600160008260000154815260200190815260200160002060003373ffffffffffffffffffffffffffffffffffffffff1673ffffffffffffffffffffffffffffffffffffffff16815260200190815260200160002060009054906101000a900460ff1615610b22576040517f08c379a0000000000000000000000000000000000000000000000000000000008152600401610b1990611ab8565b60405180910390fd5b60018060008360000154815260200190815260200160002060003373ffffffffffffffffffffffffffffffffffffffff1673ffffffffffffffffffffffffffffffffffffffff16815260200190815260200160002060006101000a81548160ff021916908315150217905550806004016000815480929190610ba390611969565b91905055505050565b606060006001610bbb84610c7a565b01905060008167ffffffffffffffff811115610bda57610bd96110ba565b5b6040519080825280601f01601f191660200182016040528015610c0c5781602001600182028036833780820191505090505b509050600082602001820190505b600115610c6f578080600190039150507f3031323334353637383961626364656600000000000000000000000000000000600a86061a8153600a8581610c6357610c6261148e565b5b04945060008503610c1a575b819350505050919050565b600080600090507a184f03e93ff9f4daa797ed6e38ed64bf6a1f0100000000000000008310610cd8577a184f03e93ff9f4daa797ed6e38ed64bf6a1f0100000000000000008381610cce57610ccd61148e565b5b0492506040810190505b6d04ee2d6d415b85acef81000000008310610d15576d04ee2d6d415b85acef81000000008381610d0b57610d0a61148e565b5b0492506020810190505b662386f26fc100008310610d4457662386f26fc100008381610d3a57610d3961148e565b5b0492506010810190505b6305f5e1008310610d6d576305f5e1008381610d6357610d6261148e565b5b0492506008810190505b6127108310610d92576127108381610d8857610d8761148e565b5b0492506004810190505b60648310610db55760648381610dab57610daa61148e565b5b0492506002810190505b600a8310610dc4576001810190505b80915050919050565b6000604051905090565b600080fd5b600080fd5b6000819050919050565b610df481610de1565b8114610dff57600080fd5b50565b600081359050610e1181610deb565b92915050565b600060208284031215610e2d57610e2c610dd7565b5b6000610e3b84828501610e02565b91505092915050565b600073ffffffffffffffffffffffffffffffffffffffff82169050919050565b6000610e6f82610e44565b9050919050565b610e7f81610e64565b8114610e8a57600080fd5b50565b600081359050610e9c81610e76565b92915050565b600060208284031215610eb857610eb7610dd7565b5b6000610ec684828501610e8d565b91505092915050565b60008115159050919050565b610ee481610ecf565b82525050565b6000602082019050610eff6000830184610edb565b92915050565b610f0e81610e64565b82525050565b6000602082019050610f296000830184610f05565b92915050565b6000819050919050565b6000610f54610f4f610f4a84610e44565b610f2f565b610e44565b9050919050565b6000610f6682610f39565b9050919050565b6000610f7882610f5b565b9050919050565b610f8881610f6d565b82525050565b6000602082019050610fa36000830184610f7f565b92915050565b610fb281610de1565b82525050565b600081519050919050565b600082825260208201905092915050565b60005b83811015610ff2578082015181840152602081019050610fd7565b60008484015250505050565b6000601f19601f8301169050919050565b600061101a82610fb8565b6110248185610fc3565b9350611034818560208601610fd4565b61103d81610ffe565b840191505092915050565b600060c08201905061105d6000830189610fa9565b818103602083015261106f818861100f565b905061107e6040830187610fa9565b61108b6060830186610f05565b6110986080830185610edb565b6110a560a0830184610fa9565b979650505050505050565b600080fd5b600080fd5b7f4e487b7100000000000000000000000000000000000000000000000000000000600052604160045260246000fd5b6110f282610ffe565b810181811067ffffffffffffffff82111715611111576111106110ba565b5b80604052505050565b6000611124610dcd565b905061113082826110e9565b919050565b600067ffffffffffffffff8211156111505761114f6110ba565b5b61115982610ffe565b9050602081019050919050565b82818337600083830152505050565b600061118861118384611135565b61111a565b9050828152602081018484840111156111a4576111a36110b5565b5b6111af848285611166565b509392505050565b600082601f8301126111cc576111cb6110b0565b5b81356111dc848260208601611175565b91505092915050565b6000806000606084860312156111fe576111fd610dd7565b5b600084013567ffffffffffffffff81111561121c5761121b610ddc565b5b611228868287016111b7565b935050602061123986828701610e02565b925050604061124a86828701610e8d565b9150509250925092565b60006020820190506112696000830184610fa9565b92915050565b7f596f75206d75737420626520746865206d616e6167657220746f206d616e616760008201527f6520726571756573740000000000000000000000000000000000000000000000602082015250565b60006112cb602983610fc3565b91506112d68261126f565b604082019050919050565b600060208201905081810360008301526112fa816112be565b9050919050565b600081905092915050565b7f596f75206861766520746f2063686f6f736520696e646578206c65737320746860008201527f616e200000000000000000000000000000000000000000000000000000000000602082015250565b6000611368602383611301565b91506113738261130c565b602382019050919050565b600061138982610fb8565b6113938185611301565b93506113a3818560208601610fd4565b80840191505092915050565b60006113ba8261135b565b91506113c6828461137e565b915081905092915050565b600060208201905081810360008301526113eb818461100f565b905092915050565b7f4e487b7100000000000000000000000000000000000000000000000000000000600052603260045260246000fd5b7f54686973207265717565737420697320616c726561647920636f6d706c657465600082015250565b6000611458602083610fc3565b915061146382611422565b602082019050919050565b600060208201905081810360008301526114878161144b565b9050919050565b7f4e487b7100000000000000000000000000000000000000000000000000000000600052601260045260246000fd5b7f4e487b7100000000000000000000000000000000000000000000000000000000600052601160045260246000fd5b60006114f782610de1565b915061150283610de1565b9250826115125761151161148e565b5b828204905092915050565b7f4861766520746f206265206174206c6561737420353025206f6620617070726f60008201527f7665727320747275650000000000000000000000000000000000000000000000602082015250565b6000611579602983610fc3565b91506115848261151d565b604082019050919050565b600060208201905081810360008301526115a88161156c565b9050919050565b7f4e487b7100000000000000000000000000000000000000000000000000000000600052602260045260246000fd5b600060028204905060018216806115f657607f821691505b602082108103611609576116086115af565b5b50919050565b6000819050919050565b61162a61162582610de1565b61160f565b82525050565b600061163c8284611619565b60208201915081905092915050565b60008190508160005260206000209050919050565b60006020601f8301049050919050565b600082821b905092915050565b6000600883026116ad7fffffffffffffffffffffffffffffffffffffffffffffffffffffffffffffffff82611670565b6116b78683611670565b95508019841693508086168417925050509392505050565b60006116ea6116e56116e084610de1565b610f2f565b610de1565b9050919050565b6000819050919050565b611704836116cf565b611718611710826116f1565b84845461167d565b825550505050565b600090565b61172d611720565b6117388184846116fb565b505050565b5b8181101561175c57611751600082611725565b60018101905061173e565b5050565b601f8211156117a1576117728161164b565b61177b84611660565b8101602085101561178a578190505b61179e61179685611660565b83018261173d565b50505b505050565b600082821c905092915050565b60006117c4600019846008026117a6565b1980831691505092915050565b60006117dd83836117b3565b9150826002028217905092915050565b6117f682610fb8565b67ffffffffffffffff81111561180f5761180e6110ba565b5b61181982546115de565b611824828285611760565b600060209050601f8311600181146118575760008415611845578287015190505b61184f85826117d1565b8655506118b7565b601f1984166118658661164b565b60005b8281101561188d57848901518255600182019150602085019450602081019050611868565b868310156118aa57848901516118a6601f8916826117b3565b8355505b6001600288020188555050505b505050505050565b600060608201905081810360008301526118d9818661100f565b90506118e86020830185610fa9565b6118f56040830184610f05565b949350505050565b7f7468616e787320746f2073656e642067726561746572207468616e0000000000600082015250565b6000611933601b83610fc3565b915061193e826118fd565b602082019050919050565b6000602082019050818103600083015261196281611926565b9050919050565b600061197482610de1565b91507fffffffffffffffffffffffffffffffffffffffffffffffffffffffffffffffff82036119a6576119a56114bd565b5b600182019050919050565b60006040820190506119c66000830185610f05565b6119d36020830184610fa9565b9392505050565b7f54686520617070726f76657273206d75737420646f6e617465206265666f726560008201527f20617070726f7665207265717565737400000000000000000000000000000000602082015250565b6000611a36603083610fc3565b9150611a41826119da565b604082019050919050565b60006020820190508181036000830152611a6581611a29565b9050919050565b7f596f752063616e277420766f7465207477696365000000000000000000000000600082015250565b6000611aa2601483610fc3565b9150611aad82611a6c565b602082019050919050565b60006020820190508181036000830152611ad181611a95565b905091905056fea2646970667358221220598b8180522a15c81a17dea04b73f3f1e96c5cc733984ec771c85c2f398e592f64736f6c634300081c0033a26469706673582212205786fa9190d9a7bc9b9425d9566b5eef3666bdb43a070906fe7c3fd64968dcb264736f6c634300081c0033",
  "linkReferences": {},
  "deployedLinkReferences": {}
}